:08051F00020F000002110000B0
:100434007509087508037B007A0079087F031200A8
:10044400037509307508037B007A0079087F05126B
:100454000003750904E4F508FB7A0079087F0312A8
:080464000003D2CCC2CDC2B3EB
:01046C00226D
:1003F500EFC394004006EFD394044002E4FFEF14EA
:10040500601114601514601914601D2404701FD246
:10041500CC8002C2CCC2CDC2B322C2CCC2CDD2B333
:0F04250022C2CCD2CDD2B322C2CCD2CDC2B3220E
:100257001204347B007A00790F750D00750E01E4E6
:10026700FFFE1204A4E50FC394004007E50FD394E3
:10027700044025E4F50F850F10AF0F1203F5E4FFD7
:10028700FE1204EE7B007A00790F750D00750E01E2
:10029700E4FFFE12046D8008AF0F1203F5850F10FF
:1002A70020B20F0512E512700205117F0112050138
:1002B70080EED3E5129464E51164809480400DE5E7
:1002C7000F94045004050F8003E4F50FE4F511F5CE
:1002D70012E510650F60C9E50FC394004007E50FED
:1002E700D394044003E4F50FAF0F1203F5850F1005
:1002F700E4FFFE1204EE7B007A00790F750D00759E
:0A0307000E01E4FFFE12046D809663
:0F0501007D607C09ED1D70011C144C70F7DFF15B
:0105100022C8
:0E051100E4F5C7F5C5F5C675C3FF75C4FF2236
:0604D5008CC3AF058FC4CB
:1004DB00A2AF92D5C2AF75C65A75C6A50000A2D5FC
:0304EB0092AF22AB
:1004A400AD07AC0675C78075F51875C5011204D57E
:1004B400E5C21203E30DBD00010C740129F9E43A0D
:1004C400FAE50E150E7002150D14450D70DF0205C8
:0104D4001116
:1004EE00AD07AC0675C78075F51875C5031204D532
:0304FE00020511E3
:10046D00AD07AC0675C78075F51875C5028CC3AFA1
:10047D00058FC412039DF5C21204DB0DBD00010CE6
:10048D00740129F9E43AFAE50E150E7002150D14F2
:07049D00450D70D9020511A5
:10000300EFD3940740037FFF2212039DFED3940393
:1000130040037FFF22EF7041EE700B90000112034B
:10002300B6F45293529412039DB4010B9000011243
:1000330003B64293F4529412039DFEB4020A900055
:10004300011203B642934294EEB4030D90000112E1
:1000530003B6FEF45293EE4294EF6401704312032D
:100063009DFE700B9000011203B6F452915292EE72
:10007300B4010B9000011203B64291F452921203A1
:100083009DB4020A9000011203B6429142921203F8
:100093009DB4030D9000011203B6FEF45291EE429B
:1000A30092EF6402704312039DFE700B90000112E5
:1000B30003B6F452955296EEB4010B90000112036D
:1000C300B64295F4529612039DB4020A90000112AF
:1000D30003B64295429612039DB4030D900001129C
:1000E30003B6FEF45295EE4296EF64037043120397
:1000F3009DFE700B9000011203B6F452B152B2EEA2
:10010300B4010B9000011203B642B1F452B21203D0
:100113009DB4020A9000011203B642B142B2120327
:100123009DB4030D9000011203B6FEF452B1EE42EA
:10013300B2EF6404704312039DFE700B9000011232
:1001430003B6F452B352B4EEB4010B9000011203A0
:10015300B642B3F452B412039DB4020A90000112E2
:1001630003B642B342B412039DB4030D90000112CF
:1001730003B6FEF452B3EE42B4EF640570431203C8
:100183009DFE700B9000011203B6F452C952CAEEE1
:10019300B4010B9000011203B642C9F452CA120310
:1001A3009DB4020A9000011203B642C942CA120367
:1001B3009DB4030D9000011203B6FEF452C9EE4242
:1001C300CAEF6406704312039DFE700B9000011288
:1001D30003B6F452CB52CCEEB4010B9000011203E0
:1001E300B642CBF452CC12039DB4020A9000011222
:1001F30003B642CB42CC12039DB4030D900001120F
:1002030003B6FEF452CBEE42CCEF64077043120305
:100213009DFF700B9000011203B6F452E152E2EF1E
:10022300B4010B9000011203B642E1F452E212034F
:100233009DB4020A9000011203B642E142E21203A6
:100243009DB4030D9000011203B6FFF452E1EF4297
:04025300E27F002224
:03000000020311E7
:0C031100787FE4F6D8FD758112020358D5
:10039D00BB010689828A83E0225002E722BBFE025E
:0903AD00E32289828A83E4932291
:1003B600BB010CE58229F582E5833AF583E02250FC
:1003C60006E92582F8E622BBFE06E92582F8E22246
:0D03D600E58229F582E5833AF583E4932260
:1003E300BB010689828A83F0225002F722BBFE01F9
:0203F300F322F3
:10031D00020257E493A3F8E493A34003F68001F29D
:10032D0008DFF48029E493A3F85407240CC8C333E1
:10033D00C4540F4420C8834004F456800146F6DFB0
:10034D00E4800B010204081020408090051FE47E1C
:10035D00019360BCA3FF543F30E509541FFEE493A5
:10036D00A360010ECF54C025E060A840B8E493A36C
:10037D00FAE493A3F8E493A3C8C582C8CAC583CA97
:10038D00F0A3C8C582C8CAC583CADFE9DEE780BE4F
:0105270000D3
:00000001FF
